:100000000C94ED000C9415010C9415010C94150141
:100010000C9415010C9415010C9415010C94150108
:100020000C9415010C9415010C9415010C941501F8
:100030000C9415010C9415010C9415010C941501E8
:100040000C9457040C9415010C9492060C946C06B5
:100050000C9415010C9415010C9415010C941501C8
:100060000C9415010C9415014C6F67207A7572750C
:1000700065636B7365747A004C6F6720616E7A6597
:100080006967656E004665756368742E20546F70ED
:10009000662032004665756368742E20546F706662
:1000A0002031005761737365727374616E64000070
:1000B0004665756368742E20546F70662032004761
:1000C000726F6573736520546F70662032004665E9
:1000D000756368742E20546F706620310047726F0C
:1000E0006573736520546F70662031000045696E3A
:1000F00073742E207A75727565636B73000B7800CC
:100100000000000C680000000000AF000000004C80
:100110006F670007A30000000008940000000009BA
:10012000850000000000AF0000000053746174758A
:10013000730002DD0000000003CE0000000004BFD9
:100140000000000005B00000000000AF000000004B
:1001500045696E7374656C6C756E67656E00000042
:100160000000250028002B000404040404040404F7
:100170000202020202020303030303030102040852
:100180001020408001020408102001020408102001
:100190000000000800020100000304070000000046
:1001A00000000000015001320105062B011301047B
:1001B0000A0F01FD00030DED0000000000EC00003F
:1001C00000000000000023002600290000000000BD
:1001D000240027002A00B909410911241FBECFEFCE
:1001E000D8E0DEBFCDBF24E0AAEAB2E001C01D9294
:1001F000A239B207E1F712E0A0E0B1E0EAE7F9E2E4
:1002000002C005900D92AA3AB107D9F710E0CCEEE2
:10021000D0E004C02197FE010E949412CB3ED1078A
:10022000C9F70E94430B0C94B0140C94000040E0FA
:10023000682F8AE993E00C94F10680915E03E091C7
:100240005B03F0915C0396E0899FE00DF11D1124A2
:100250003596E49181E0E11101C080E0089580913C
:100260005E03E0915B03F0915C0396E0899FE00DF3
:10027000F11D1124AEE0B1E081E0A231B80731F008
:100280009D9184919813F8CF81E0089580E00895BE
:100290008F929F92AF92BF920F931F93CF93DF9352
:1002A000CDB7DEB7A1970FB6F894DEBF0FBECDBFB6
:1002B00019A2423008F44AE08E010F5D1F4F842ED0
:1002C000912CA12CB12CA50194010E945E12E62F65
:1002D000B901CA0101501109EA3014F4E05D01C00E
:1002E000E95CD801EC93232B242B252B61F7B80173
:1002F0008BEB92E00E945506A1960FB6F894DEBFF4
:100300000FBECDBFDF91CF911F910F91BF90AF90E6
:100310009F908F90089581E00E9417018BE39FE1E9
:100320000197F1F70895643008F063E09091AD0310
:10033000691710F06FEF690FE62FF0E0E656FC4FFB
:100340009489890F80680C941701CF93DF93EC0197
:1003500061E080E00E9493014C815D816881798138
:100360008AE993E0DF91CF910C94C304CF93DF939C
:10037000BC01FC0101900020E9F73197EF01C81B97
:10038000D90BC03100F58AEA92E00E949A1480E10C
:100390008C1B813108F080E1EEEEF3E090E020E28A
:1003A000AF014E5E53404817590714F42193F8CF1C
:1003B000FC01E251FC4F10826EEE73E08AEA92E09B
:1003C0000E948F1406C041E150E08AEA92E00E9448
:1003D000A1148AEA92E0DF91CF9108950F931F93C1
:1003E000CF93DF938C01EB01FC0180819181009719
:1003F000B1F0688179816115710579F0428153818D
:100400002C813D814217530740F00E949A148C8141
:100410009D81F8019583848313C00E9432138881E3
:100420009981F801918380838A819B819383828360
:100430008C819D8195838483198218821B821A8204
:100440001D821C82DF91CF911F910F910895EF9231
:10045000FF920F931F93CF93DF93CDB7DEB729970A
:100460000FB6F894DEBF0FBECDBF8C01862FF8010A
:100470001182108213821282158214824AE09E0138
:100480002F5F3F4F7901B90190E00E94AD0FF70156
:1004900001900020E9F73197AF014E195F09B701CC
:1004A000C8010E94A10429960FB6F894DEBF0FBEC2
:1004B000CDBFDF91CF911F910F91FF90EF900895E5
:1004C000EF92FF920F931F93CF93DF93EC01FB0109
:1004D00004811581E080F180E114F104C9F0011577
:1004E0001105C9F08C819D81080F191FB801CE013B
:1004F0000E94E805882361F0288139818C819D81E3
:10050000B701820F931F0E949A141D830C8303C0AE
:10051000CE010E940F06CE01DF91CF911F910F9166
:10052000FF90EF900895CF93DF93FC0144815581B4
:10053000608171818BEB92E00E94C304EC0169E45D
:1005400072E08BEB92E00E9455068C0F9D1FDF91AD
:10055000CF9108951F93CF93DF93282F30E0F901B7
:10056000E057FE4F8491F901E458FE4FD491F90110
:10057000E859FE4FC491CC23C1F0162F81110E947F
:10058000DB03EC2FF0E0EE0FFF1FE25AFE4FA591C8
:10059000B4919FB7F894111104C08C91D095D823D1
:1005A00002C0EC91DE2BDC939FBFDF91CF911F91B6
:1005B0000895CF93DF93823028F09091A90398603B
:1005C0009093A9038093AD031092AE0380E48093CF
:1005D000AF0380E18093B00380E58093B10361E0D5
:1005E00080919E030E94040480919F038F3F19F025
:1005F00061E00E94040461E08091A0030E94040471
:10060000CAE9D3E09E012A5933408091A90384FDB1
:1006100003C084E090E002C088E090E021962817B3
:1006200039072CF461E08E810E940404EBCF8BE348
:100630009DE00197F1F760E080919E030E94AA027D
:1006400060E08091A0030E94AA0280919F038F3FE7
:1006500019F060E00E94AA028091A90384FD20C0E5
:1006600063E08AE993E00E94C406CBE4D6E4CE01BD
:100670000197F1F763E08AE993E00E94C4062197AD
:10068000F1F763E08AE993E00E94C40683E592E013
:100690000197F1F762E08AE993E00E94C40615C071
:1006A00080620E9417018BE496E40197F1F7809134
:1006B000A90380620E94170183E592E00197F1F798
:1006C0008091A90380620E9417018091A903806232
:1006D0000E94170184E08093AA038CE00E94170116
:1006E0000E948B0182E08093AB0386E0DF91CF9183
:1006F0000C9417013FB7F89480918A0490918B0471
:10070000A0918C04B0918D0426B5A89B05C02F3F05
:1007100019F00196A11DB11D3FBFBA2FA92F982F27
:100720008827820F911DA11DB11DBC01CD0142E0A2
:10073000660F771F881F991F4A95D1F708958F92EA
:100740009F92AF92BF92CF92DF92EF92FF926B0196
:100750007C010E947A034B015C01C114D104E104C5
:10076000F104F1F00E947A03DC01CB0188199909A8
:10077000AA09BB09883E9340A105B10570F321E0A9
:10078000C21AD108E108F10888EE880E83E0981EAD
:10079000A11CB11CC114D104E104F10419F7DDCF8F
:1007A000FF90EF90DF90CF90BF90AF909F908F9091
:1007B00008950E948114833081F028F4813099F0EB
:1007C0008230A1F008958730A9F08830B9F08430E4
:1007D000D1F4809180008F7D03C0809180008F775D
:1007E00080938000089584B58F7702C084B58F7D93
:1007F00084BD08958091B0008F7703C08091B000D0
:100800008F7D8093B0000895CF93DF9390E0FC013B
:10081000E458FE4F2491FC01E859FE4F849188234F
:1008200061F190E0880F991FFC01E453FE4FC591E0
:10083000D491FC01E25AFE4FA591B491611109C017
:100840009FB7F8948881209582238883EC912E238A
:100850000BC0623061F49FB7F8948881322F3095D5
:1008600083238883EC912E2B2C939FBF06C08FB7D8
:10087000F894E8812E2B28838FBFDF91CF910895C4
:100880008E3008F08E508770806480937C00809159
:100890007A00806480937A0080917A0086FDFCCF94
:1008A000809178002091790090E0922B08951F921A
:1008B0000F920FB60F9211242F933F938F939F9314
:1008C000AF93BF938091860490918704A091880490
:1008D000B09189043091850423E0230F2D3720F453
:1008E0000196A11DB11D05C026E8230F0296A11D8A
:1008F000B11D209385048093860490938704A09370
:100900008804B093890480918A0490918B04A0910B
:100910008C04B0918D040196A11DB11D80938A04B1
:1009200090938B04A0938C04B0938D04BF91AF91EE
:100930009F918F913F912F910F900FBE0F901F901D
:100940001895EF92FF920F931F93CF93DF93EC01D3
:100950007B018A01BA010E94E805811104C0CE0121
:100960000E940F0607C01D830C83B70188819981FF
:100970000E949A14CE01DF91CF911F910F91FF90A9
:10098000EF9008950895CF92DF92EF92FF920F9328
:100990001F93CF93DF936C017A018B01C0E0D0E00D
:1009A000CE15DF0581F0D8016D918D01D601ED9155
:1009B000FC910190F081E02DC6010995892B11F081
:1009C0002196EECF7E01C701DF91CF911F910F914C
:1009D000FF90EF90DF90CF900895FC01538D448DF0
:1009E000252F30E0842F90E0821B930B541710F0DA
:1009F000CF96089501970895FC01918D828D9817E7
:100A000061F0828DDF01A80FB11D5D968C91928DF2
:100A10009F5F9F73928F90E008958FEF9FEF0895EF
:100A2000FC01918D828D981731F0828DE80FF11DB8
:100A3000858D90E008958FEF9FEF0895FC01918DD3
:100A4000228D892F90E0805C9F4F821B91098F73CC
:100A5000992708958BEB92E00E941E0521E0892BD7
:100A600009F420E0822F0895FC01848DDF01A80F96
:100A7000B11DA35ABF4F2C91848D90E001968F73C6
:100A80009927848FA689B7892C93A089B1898C91E5
:100A9000837080648C93938D848D981306C0028834
:100AA000F389E02D80818F7D80830895EF92FF92FE
:100AB0000F931F93CF93DF93EC0181E0888F9B8D81
:100AC0008C8D981305C0E889F989808185FD26C041
:100AD000F62E0B8D10E00F5F1F4F0F731127E02EC6
:100AE0008C8DE8120CC00FB607FCFACFE889F989A3
:100AF000808185FFF5CFCE010E943405F1CF8B8D2B
:100B0000FE01E80FF11DE35AFF4FF0829FB7F89402
:100B10000B8FEA89FB89808180620AC09FB7F894B5
:100B2000EE89FF896083E889F98980818370806418
:100B300080839FBF81E090E0DF91CF911F910F9163
:100B4000FF90EF900895CF93DF93EC01888D882379
:100B5000C9F0EA89FB89808185FD05C0A889B9892A
:100B60008C9186FD0FC00FB607FCF5CF808185FF05
:100B7000F2CFA889B9898C9185FFEDCFCE010E9473
:100B80003405E7CFDF91CF91089580E090E0892B85
:100B900029F00E942A0581110C940000089580E03C
:100BA00090E00895CF93DF93EC0160E08E810E9486
:100BB000AA0261E08E810E94AA0260E08E810E94FA
:100BC000AA028BE891E00197F1F7DF91CF910895A8
:100BD0000F931F93CF93DF93EC0188819981009746
:100BE00029F02A813B812617370788F48B016F5F34
:100BF0007F4F0E94BB13009761F0998388831B830A
:100C00000A832C813D81232B11F4FC01108281E0A9
:100C100001C080E0DF91CF911F910F910895CF9394
:100C2000DF93EC0188819981009711F00E943213C3
:100C3000198218821D821C821B821A82DF91CF9139
:100C40000895FC01808191810C943213FB01DC0139
:100C500011961C921E9213961C921E921297159634
:100C60001C921E9214978617970749F06081718134
:100C70006115710521F0448155810C94A1040895FA
:100C8000FC01118210821382128215821482611576
:100C9000710551F0FB0101900020E9F73197AF0198
:100CA000461B570B0C94A10408956115710579F04A
:100CB000FB0101900020E9F73197AF01461B570B6C
:100CC000DC01ED91FC910280F381E02D099480E03C
:100CD00090E008950C9455061F920F920FB60F9254
:100CE00011242F933F934F935F936F937F938F9331
:100CF0009F93AF93BF93EF93FF938BEB92E00E9490
:100D00003405FF91EF91BF91AF919F918F917F91AA
:100D10006F915F914F913F912F910F900FBE0F9068
:100D20001F9018951F920F920FB60F9211242F93B8
:100D30008F939F93EF93FF93E091CB02F091CC02BE
:100D40008081E091D102F091D20282FD12C09081A7
:100D50008091D4028F5F8F732091D502821751F05A
:100D6000E091D402F0E0E554FD4F958F8093D402DA
:100D700001C08081FF91EF919F918F912F910F90F2
:100D80000FBE0F901F901895CF92DF92EF92FF92B7
:100D90000F931F93CF93DF936C017C0187E0E80EE4
:100DA000F11CC0E0D0E0062F10E0B8010C2E02C00C
:100DB000759567950A94E2F76170F70181917F015B
:100DC0000E94AA022196C430D10579F7C601DF91AD
:100DD000CF911F910F91FF90EF90DF90CF900C94E7
:100DE000D205CF92DF92EF92FF920F931F93CF9392
:100DF000DF93EC01F62E642F8C810E94AA028D8174
:100E00008F3F19F060E00E94AA028F850F2D10E03D
:100E100084FF25C06E0187E0C80ED11CE12CF12CA7
:100E2000B8010E2C02C0759567950A94E2F76170BF
:100E3000F60181916F010E94AA02FFEFEF1AFF0AEB
:100E400088E0E816F10461F7CE01DF91CF911F91A0
:100E50000F91FF90EF90DF90CF900C94D205B801E6
:100E600084E0759567958A95E1F7CE010E94C406E6
:100E70006F2DCE01DF91CF911F910F91FF90EF90D9
:100E8000DF90CF900C94C40641E00E94F10681E00F
:100E900090E00895CF93DF93CDB7DEB761970FB69B
:100EA000F894DEBF0FBECDBF60E080E00E949301EA
:100EB0000E941D0190915E03E0915B03F0915C0341
:100EC000882381F086E0989FE00DF11D1124319672
:100ED00065917491CE0101960E949B0F0E94B6010C
:100EE0008EE71DC086E0989FE00DF11D112431961C
:100EF00065917491CE0101960E949B0F0E94B601EC
:100F000080915E03E0915B03F0915C0396E0899F22
:100F1000E00DF11D1124E491E1110EC08FE78093E3
:100F2000B9026AEA72E08AE993E00E946A0661E027
:100F300080E00E94930110C06AEA72E08AE993E0BF
:100F40000E946A0661E080E00E94930169E672E017
:100F50008AE993E00E946A0688E791E00E94B60160
:100F6000BC018AE993E00E946A0661960FB6F89484
:100F7000DEBF0FBECDBFDF91CF910895FC01808110
:100F80009181009719F481E090E005C081309105CE
:100F900029F482E090E0918380830895029711F410
:100FA000118210820895CF93DF93EC0161307105B7
:100FB00041F06230710541F0672B61F46AEC73E037
:100FC00005C060ED73E002C066ED73E0CE010E94E3
:100FD000260604C064E972E00E944006CE01DF915B
:100FE000CF910895CF93DF93EC016130710541F00B
:100FF0006230710541F0672B61F46CED73E005C060
:1010000062EE73E002C068EE73E0CE010E94260635
:1010100004C064E972E00E944006CE01DF91CF91E6
:1010200008954F925F926F927F928F929F92AF92AC
:10103000BF92CF92DF92EF92FF92CF93DF93EC01BA
:101040008E810E9440046C01990FEE08FF08F7FEA4
:101050000EC06DE28BEB92E00E9456056627772763
:10106000CB016C197D098E099F094AE003C04AE053
:10107000C701B6010E94480169E472E08BEB92E07F
:101080000E9455068E810E944004BC01990F880B76
:10109000990B0E94DE0F20E030E048EC52E40E9401
:1010A0003D106B017C016C817D818A819B81681B75
:1010B000790B072E000C880B990B0E94DE0F9B0109
:1010C000AC01C701B6010E949F116B017C014B016D
:1010D0005C019B01AC010E944512882319F06EE966
:1010E00072E01AC026013701E89477F82FEF3FEF3E
:1010F0004FE75FE7C301B2010E944512811111C0A1
:101100002FEF3FEF4FE75FE7C301B2010E94D70F18
:1011100018163CF462EA72E08BEB92E00E945506EE
:1011200078C02FEF3FEF4FE75FE4C701B6010E94A1
:10113000401218161CF466EA72E0EECF2FEF3FEF74
:101140004FE75FECC701B6010E94D70F87FDF3CFD1
:1011500020E030E0A901C701B6010E94D70F87FF48
:101160000BC06DE28BEB92E00E94560546015701E1
:10117000B7FAB094B7F8B0942AE037ED43EA5BE3EE
:10118000C501B4010E9433114B015C010E94111290
:101190006B017C010E94DC0F9B01AC01C501B40115
:1011A0000E9432114B015C014AE0C701B6010E9466
:1011B00048016EE28BEB92E00E94560520E030E0A1
:1011C00040E251E4C501B4010E943D104B015C01B5
:1011D0000E9411126B01E12CF12C4AE0C701B6010B
:1011E0000E944801C701B6010E94DC0F9B01AC01BF
:1011F000C501B4010E94321120E030E040E251E428
:101200000E943D100E94111280E090E04AE00E948E
:10121000480169E472E08BEB92E00E9455068E81F2
:101220000E944004BC01990F880B990B0E94DE0FAD
:1012300020E030E048EC52E40E943D106B017C015C
:101240006C817D818A819B81681B790B072E000C44
:10125000880B990B0E94DE0F9B01AC01C701B60100
:101260000E949F11DF91CF91FF90EF90DF90CF9080
:10127000BF90AF909F908F907F906F905F904F90B6
:1012800008958FEF93E00E94210685E094E00E948C
:1012900021068BE094E00E94210681E194E00E9407
:1012A000210683E294E00E9421068DE194E00E94F1
:1012B000210687E194E00E94210685E394E00E94E4
:1012C00021068FE294E00E94210689E294E00E94C8
:1012D00021068BE394E00E94210681E494E00E94C1
:1012E000210687E494E00E9421068DE494E00E94A8
:1012F00021068FE594E00E94210689E594E00E9492
:10130000210683E594E00E94210681E794E00E9493
:1013100021068BE694E00E94210685E694E00E9477
:10132000210682EB93E00E94210688EB93E00E9465
:1013300021068EEB93E00E94210684EC93E00E944C
:10134000210686ED93E00E94210680ED93E00E9445
:1013500021068AEC93E00E94210688EE93E00E9429
:10136000210682EE93E00E9421068CED93E00C941E
:1013700021060F931F93CF93DF93EBEBF2E01382E1
:10138000128288EE93E0A0E0B0E084839583A68388
:10139000B78386E191E09183808385EC90E0958727
:1013A000848784EC90E09787868780EC90E0918B2F
:1013B000808B81EC90E0938B828B82EC90E0958B1C
:1013C000848B86EC90E0978B868B118E128E138E19
:1013D000148E69E771E08CED93E00E9440066FE7A0
:1013E00071E082EE93E00E94400666E871E088EECC
:1013F00093E00E9440066CE871E08AEC93E00E9462
:1014000040066AE971E080ED93E00E94400663E9DE
:1014100071E086ED93E00E94400667EA71E084EC9B
:1014200093E00E9440066DEB71E08EEB93E00E942A
:10143000400663ED71E088EB93E00E9440066EE0A9
:1014400072E082EB93E00E944006EAE9F3E0138247
:10145000128288E291E091838083C4E0C4838FEF9D
:10146000858386E0868387E0878388E0808789E0BC
:1014700081878AE0828713861486158616861786EA
:1014800081E00E94D902E7E7F4E082E190E09183F5
:1014900080838AEF90E093838283C08700E110E02D
:1014A00012870187EEE8F3E0118210821382128224
:1014B000C0E4D1E0D583C4838EE090E09783868337
:1014C00080E090E0A0E2B1E480879187A287B387B3
:1014D00060E08EE00E94040460E08EE00E9404045C
:1014E000609102017091030180E090E00E94DC0FA6
:1014F000E2E8F3E01182108213821282D583C48362
:101500002FE030E037832683608771878287938757
:1015100060E08FE00E94040460E08FE00E94040419
:10152000609100017091010180E090E00E94DC0F69
:10153000E6E7F3E01182108213821282D583C4831E
:1015400017830683608771878287938760E080E1D5
:101550000E94040460E080E10E94040483E0809320
:10156000750361E00E940404C5E0C093740361E068
:1015700085E00E940404E8E5F3E084EA91E09183C9
:101580008083C28394838383C5831682138E69E725
:1015900071E085E694E00E9440066FE771E08BE61B
:1015A00094E00E94400666E871E081E794E00E94C2
:1015B00040066CE871E083E594E00E9440066AE929
:1015C00071E089E594E00E94400663E971E08FE5EF
:1015D00094E00E94400667EA71E08DE494E00E9486
:1015E00040066DEB71E087E494E00E94400663EDF5
:1015F00071E081E494E00E9440066EE072E08BE3CB
:1016000094E00E94400669E771E089E294E00E945C
:1016100040066FE771E08FE294E00E94400666E8C2
:1016200071E085E394E00E9440066CE871E087E198
:1016300094E00E9440066AE971E08DE194E00E9426
:10164000400663E971E083E294E00E94400667EAA5
:1016500071E081E194E00E9440066DEB71E08BE067
:1016600094E00E94400663ED71E085E094E00E9402
:1016700040066EE072E08FEF93E0DF91CF911F9113
:101680000F910C944006CF93DF93CDB7DEB7A297AE
:101690000FB6F894DEBF0FBECDBF789484B58260DC
:1016A00084BD84B5816084BD85B5826085BD85B506
:1016B000816085BD80916E00816080936E00109284
:1016C00081008091810082608093810080918100FF
:1016D0008160809381008091800081608093800090
:1016E0008091B10084608093B1008091B0008160EE
:1016F0008093B00080917A00846080937A0080911A
:101700007A00826080937A0080917A008160809371
:101710007A0080917A00806880937A001092C100EC
:10172000E091CB02F091CC0282E08083E091C7028D
:10173000F091C8021082E091C902F091CA028FECC8
:1017400080831092D302E091CF02F091D00286E024
:101750008083E091CD02F091CE0280818061808310
:10176000E091CD02F091CE02808188608083E0918B
:10177000CD02F091CE02808180688083E091CD021D
:10178000F091CE0280818F7D80838BEB92E00E946E
:10179000A3050E948B0182E00E94D9026CE472E0F2
:1017A0008AE993E00E946A0660E08DE00E940404EA
:1017B00061E08CE00E94040461E08BE00E9404047C
:1017C0008E010F5F1F4F45E7242E41E0342E5AE073
:1017D000A52EB12C68EE862E63E0962E8BEB92E060
:1017E0000E941E051816190614F06FEF29C08BEB26
:1017F00092E00E94FC04F82E2DE08217B1F3682FCE
:10180000CE0141960E9427026AE572E0C8010E945B
:101810004006BE016F5E7F4FC8010E9460020E94B9
:101820009302C8010E942106CE0141960E94210622
:10183000EDEDEF0DE234C8F6F0E0E05DFE4F6081C3
:10184000609384046F3FB9F0C8010E94270262E6EA
:1018500072E0CE0141960E944006B801CE01419649
:101860000E9460020E949302CE0141960E942106CE
:10187000C8010E942106809183048130B9F038F0BC
:10188000823009F479C1833009F46DC085C180913B
:1018900084048F3031F481E08093830483E00E94DC
:1018A0004A0760E080E00E94930176C10E941D011A
:1018B000F82E811103C00E942F0101C080E0909199
:1018C00084049A3081F09B3081F09F3081F09C300D
:1018D00031F4F1100CC0882361F085E00BC09D301D
:1018E00041F484E007C081E005C082E003C083E0EA
:1018F00001C080E09DEF980F923098F490915E03C4
:10190000E0915B03F0915C0326E0929FE00DF11DF6
:101910001124E491EE2309F4ADC2843009F04DC2E4
:10192000A9C2813051F480915E03882309F434C147
:10193000815080935E0380E013C0823009F02CC197
:1019400020915E03422F50E080915D0390E001976B
:10195000481759070CF020C12F5F20935E0381E0E8
:101960000E944A0719C180915E03E0915B03F091E8
:101970005C0326E0829FE00DF11D1124F49061E0EC
:1019800081E00E9493016BE472E0CE014D960E94CB
:10199000400683E0F816E9F18F1520F092E0F91681
:1019A00049F064C0E4E0FE16E1F0F5E0FF1609F44A
:1019B00046C05CC06091060170910701C8010E9499
:1019C000F207B801CE014D960E94EE01C8010E94B7
:1019D0002106809184048C3009F048C086E091E0B3
:1019E00015C06091040170910501C8010E94F207C1
:1019F000B801CE014D960E94EE01C8010E94210659
:101A0000809184048C3091F584E091E00E94BE07BF
:101A10002DC06091020170910301C8010E94D3079B
:101A2000B801CE014D960E94EE01C8010E94210628
:101A3000809184048C30D1F482E091E015C06091F3
:101A4000000170910101C8010E94D307B801CE01C5
:101A50004D960E94EE01C8010E94210680918404E7
:101A60008C3021F480E091E00E94BE07BE01635EED
:101A70007F4FCE0147960E9426064AE0B80181E0DA
:101A800090E00E94A20FF80101900020E9F7319741
:101A9000E01BF10BD9F0EB8CFC8CEE0EFF1EB701B6
:101AA000CE0147960E94E805882361F02F89388D82
:101AB0008B8D9C8DB801820F931F0E949A14FC8E0F
:101AC000EB8E04C0CE0147960E940F06BE01695EF0
:101AD0007F4FCE0141960E9426068D899E890097F0
:101AE000B1F0E9A0FAA0E114F10411F419820FC0D9
:101AF00001978E159F0508F47C016D8D7E8DA701E1
:101B0000C8010E94A114F801EE0DFF1D1082CE0144
:101B100041960E942106CE0147960E942106C801E7
:101B20000E94B601BC018AE993E00E946A06809196
:101B300084048D7FF82ECE014D960E94210661E02F
:101B400080E00E9493012EE72093AA021092AB023C
:101B50006AEA72E08AE993E00E946A068DE0F81270
:101B60001BC081E08093830461E080E00E949301C8
:101B700080E28093AA02D6C180915E03E0915B036C
:101B8000F0915C0396E0899FE00DF11D1124E49132
:101B9000809184048F3029F3EDE9F1E08491E9E844
:101BA000F1E0F490F101E490EE20F9F081110E944F
:101BB000DB03EE2DF0E0EE0FFF1FEE53FE4FA5917D
:101BC000B4918C91F82289F062E370E080E090E0BB
:101BD0000E949F038091820481118AC181E08093D9
:101BE000820461E08BE00E94AA0280918204882333
:101BF00009F4E0C082E893E00E9411086B017C01C7
:101C00006091020170910301072E000C880B990B63
:101C10000E94DE0F9B01AC01C701B6010E94D70FE5
:101C200087FF5BC080910601909107018330910589
:101C300040F4880F991FFC01EE58FE4FE080F180C0
:101C400003C03AE0E32EF12CC701B5010E944A120D
:101C5000072E000C880B990B0E94DE0F2B013C0114
:101C600020E030E04AE754E46091960370919703D6
:101C700080919803909199030E943D109B01AC01C3
:101C800060E070E08AE794E40E9432119B01AC01AD
:101C9000C301B2010E94401287FD2EC161E0809114
:101CA00075030E94AA02C701B4010E944A12072EBE
:101CB000000C880B990B0E949F0360E080917503D4
:101CC0000E94AA0264EC73E0C8010E942606C801C3
:101CD0000E94A501C8010E94210686E793E00E94A8
:101CE00011086B017C016091000170910101072EC8
:101CF000000C880B990B0E94DE0F9B01AC01C70101
:101D0000B6010E94D70F87FF55C0809104019091C2
:101D100005018330910540F4880F991FFC01EE58AE
:101D2000FE4F8081918102C08AE090E0B5010E945F
:101D30004A126B01770FEE08FF08C701B6010E9437
:101D4000DE0F2B013C0120E030E04AE754E46091D3
:101D500096037091970380919803909199030E9444
:101D60003D109B01AC0160E070E08AE794E40E94C2
:101D700032119B01AC01C301B2010E94401287FDE8
:101D8000BEC061E0809174030E94AA02C701B6013F
:101D90000E949F0360E0809174030E94AA026EEB90
:101DA00073E0C8010E942606C8010E94A501C8016F
:101DB0000E9421060E94C50511CD0E941D018823A5
:101DC00009F443C00E941D01882309F43CC03091EE
:101DD0005E0360915B0370915C0320917303253077
:101DE000E8F440915D03822F90E0DC01AA0FBB1F55
:101DF000AA0FBB1FA85ABC4F17963C931797880F82
:101E0000991F880F991F805A9C4FFC0140831A9696
:101E10007C936E9319972F5F20937303CB01F6E0A9
:101E20003F9F800D911D1124FC013596E491E093B4
:101E30005D03FC0133968591949190935C038093AC
:101E40005B0310925E0383E08BCD0E942F018823F9
:101E500009F458C06EE772E08BEB92E00E945506E1
:101E600069E472E08BEB92E00E945506F3E0F09398
:101E7000830492CE80917303882319F1815080935B
:101E8000730390E0DC01AA0FBB1FAA0FBB1FA85A67
:101E9000BC4F19962D913C911A9730935C03209377
:101EA0005B03880F991F880F991FFC01E05AFC4FB4
:101EB000808180935D0317968C9180935E0382E00E
:101EC0004FCD6BE672E08BEB92E00E94550669E421
:101ED00072E08BEB92E00E9455060E948B016CE44D
:101EE00072E08AE993E00E946A061092830454CE5D
:101EF0001092820460E076CE68EB73E0E5CE62EB90
:101F000073E04FCF82E0809383046DE872E08BEB47
:101F100092E00E946A0661E080E00E9493012EE751
:101F20002093AA021092AB026AEA72E08AE993E077
:101F30000E946A0631CEFB01DC0105900D92002063
:101F4000E1F70895BB274A3031F4992322F4BDE22A
:101F5000909581959F4F0C94AE0FBB27FB015527A1
:101F6000AA27880F991FAA1FA41710F0A41B8395F6
:101F70005051B9F7A05DAA3308F0A95DA19300976D
:101F800079F7B111B1931192CB010C94C70FDC0119
:101F9000FC01672F71917723E1F7329704C07C91A0
:101FA0006D9370836291AE17BF07C8F308950E94C6
:101FB000191008F481E00895E89409C097FB3EF4F5
:101FC00090958095709561957F4F8F4F9F4F992386
:101FD000A9F0F92F96E9BB279395F6958795779504
:101FE0006795B795F111F8CFFAF4BB0F11F460FFC4
:101FF0001BC06F5F7F4F8F4F9F4F16C0882311F01C
:1020000096E911C0772321F09EE8872F762F05C02F
:10201000662371F096E8862F70E060E02AF09A95CA
:10202000660F771F881FDAF7880F9695879597F9BF
:102030000895990F0008550FAA0BE0E8FEEF161659
:102040001706E807F907C0F012161306E407F507AC
:1020500098F0621B730B840B950B39F40A2661F020
:10206000232B242B252B21F408950A2609F4A140C3
:10207000A6958FEF811D811D08950E9450100C942C
:10208000C1100E94B31038F00E94BA1020F09523BE
:1020900011F00C94AA100C94B01011240C94F510AB
:1020A0000E94D21070F3959FC1F3950F50E0551F19
:1020B000629FF001729FBB27F00DB11D639FAA279D
:1020C000F00DB11DAA1F649F6627B00DA11D661FEC
:1020D000829F2227B00DA11D621F739FB00DA11D0D
:1020E000621F839FA00D611D221F749F3327A00DC7
:1020F000611D231F849F600D211D822F762F6A2F63
:1021000011249F5750409AF0F1F088234AF0EE0FC7
:10211000FF1FBB1F661F771F881F91505040A9F7F4
:102120009E3F510580F00C94AA100C94F5105F3F6F
:10213000E4F3983ED4F3869577956795B795F79530
:10214000E7959F5FC1F7FE2B880F911D96958795A8
:1021500097F9089597F99F6780E870E060E0089527
:102160009FEF80EC089500240A94161617061806AF
:102170000906089500240A9412161306140605068B
:102180000895092E0394000C11F4882352F0BB0F1C
:1021900040F4BF2B11F460FF04C06F5F7F4F8F4F7F
:1021A0009F4F089557FD9058440F551F59F05F3FBA
:1021B00071F04795880F97FB991F61F09F3F79F069
:1021C00087950895121613061406551FF2CF4695EB
:1021D000F1DF08C0161617061806991FF1CF86956D
:1021E0007105610508940895E894BB276627772751
:1021F000CB0197F908952F923F924F925F926F9281
:102200007F928F929F92AF92BF92CF92DF92EF9286
:10221000FF920F931F93CF93DF93CDB7DEB7CA1B07
:10222000DB0B0FB6F894DEBF0FBECDBF09942A8832
:10223000398848885F846E847D848C849B84AA84DA
:10224000B984C884DF80EE80FD800C811B81AA8167
:10225000B981CE0FD11D0FB6F894DEBF0FBECDBF32
:10226000ED0108955058BB27AA270E944A110C94EB
:10227000C1100E94B31038F00E94BA1020F039F457
:102280009F3F19F426F40C94B0100EF4E095E7FB90
:102290000C94AA10E92F0E94D21058F3BA176207C3
:1022A00073078407950720F079F4A6F50C94F410D1
:1022B0000EF4E0950B2EBA2FA02D0B01B901900161
:1022C0000C01CA01A0011124FF27591B99F0593FA5
:1022D00050F4503E68F11A16F040A22F232F342FED
:1022E0004427585FF3CF469537952795A795F0403B
:1022F0005395C9F77EF41F16BA0B620B730B840B50
:10230000BAF09150A1F0FF0FBB1F661F771F881F07
:10231000C2F70EC0BA0F621F731F841F48F487955F
:1023200077956795B795F7959E3F08F0B0CF939551
:10233000880F08F09927EE0F9795879508950E94CA
:10234000B3110C94C1100E94BA1058F00E94B3103F
:1023500040F029F45F3F29F00C94AA1051110C941D
:10236000F5100C94B0100E94D21068F39923B1F3C9
:10237000552391F3951B550BBB27AA2762177307AB
:10238000840738F09F5F5F4F220F331F441FAA1F3F
:10239000A9F335D00E2E3AF0E0E832D091505040FB
:1023A000E695001CCAF72BD0FE2F29D0660F771FA9
:1023B000881FBB1F261737074807AB07B0E809F08F
:1023C000BB0B802DBF01FF2793585F4F3AF09E3F14
:1023D000510578F00C94AA100C94F5105F3FE4F3CB
:1023E000983ED4F3869577956795B795F7959F5F57
:1023F000C9F7880F911D9695879597F90895E1E0A3
:10240000660F771F881FBB1F621773078407BA0701
:1024100020F0621B730B840BBA0BEE1F88F7E0955C
:1024200008950E94DA1088F09F5798F0B92F9927E5
:10243000B751B0F0E1F0660F771F881F991F1AF0AF
:10244000BA95C9F714C0B13091F00E94F410B1E010
:1024500008950C94F410672F782F8827B85F39F00F
:10246000B93FCCF3869577956795B395D9F73EF448
:1024700090958095709561957F4F8F4F9F4F0895F0
:102480000E94191008F48FEF08950E941910880B0C
:10249000990B089597FB072E16F4009407D077FD4B
:1024A00009D00E94801207FC05D03EF490958195DA
:1024B0009F4F0895709561957F4F0895A1E21A2E60
:1024C000AA1BBB1BFD010DC0AA1FBB1FEE1FFF1FD8
:1024D000A217B307E407F50720F0A21BB30BE40B28
:1024E000F50B661F771F881F991F1A9469F760956F
:1024F0007095809590959B01AC01BD01CF01089529
:10250000AA1BBB1B51E107C0AA1FBB1FA617B70719
:1025100010F0A61BB70B881F991F5A95A9F7809535
:102520009095BC01CD010895EE0FFF1F0590F49129
:10253000E02D09940F931F93CF93DF938230910581
:1025400010F482E090E0E0919004F091910420E09A
:1025500030E0A0E0B0E0309719F140815181028174
:10256000138148175907C8F08417950769F4109725
:1025700031F012960C93129713961C9327C0009378
:1025800090041093910422C02115310519F04217CF
:10259000530718F49A01BD01EF01DF01F801DBCF09
:1025A00021153105F9F0281B390B2430310580F451
:1025B0008A819B816115710521F0FB0193838283E0
:1025C00004C09093910480939004FE01329644C01D
:1025D000FE01E20FF31F8193919322503109398359
:1025E00028833AC020918E0430918F04232B41F42C
:1025F00020910A0130910B0130938F0420938E04B7
:1026000020910801309109012115310541F42DB7C0
:102610003EB740910C0150910D01241B350BE09108
:102620008E04F0918F04E217F307A0F42E1B3F0BEA
:102630002817390778F0AC014E5F5F4F2417350734
:1026400048F04E0F5F1F50938F0440938E04819388
:10265000919302C0E0E0F0E0CF01DF91CF911F91B4
:102660000F910895CF93DF93009709F481C0FC0187
:10267000329713821282A0919004B0919104109726
:1026800081F420813181820F931F20918E0430913B
:102690008F042817390751F5F0938F04E0938E04C7
:1026A00067C0ED0120E030E0CE17DF0740F44A813B
:1026B0005B819E0141155105F1F0EA01F5CFD3830D
:1026C000C28340815181840F951FC817D90759F4DF
:1026D00088819981840F951F0296918380838A81D6
:1026E0009B81938382832115310529F4F093910412
:1026F000E09390043DC0E901FB83EA83499159913D
:10270000C40FD51FEC17FD0761F480819181840F00
:10271000951F0296E90199838883828193819B8327
:102720008A83E0E0F0E012968D919C9113970097D8
:1027300019F0FD01DC01F7CF8D919C9111979D015E
:102740002E5F3F4F820F931F20918E0430918F0494
:102750002817390769F4309729F4109291041092E0
:10276000900402C013821282B0938F04A0938E044F
:10277000DF91CF910895A0E0B0E0E1ECF3E10C949B
:10278000FF10EC01009721F4CB010E949A12B4C013
:10279000FC01E60FF71F9C0122503109E217F307F5
:1027A00008F4A8C0D9010D911C91119706171707BD
:1027B000B0F00530110508F49BC0C80104978617D6
:1027C000970708F495C002501109061B170B0193D7
:1027D00011936D937C93CF010E94321389C05B01EA
:1027E000A01AB10A4C01800E911EA0919004B091E4
:1027F0009104612C712CE12CF12C109709F446C046
:102800008D919C911197A815B905B1F56C0142E025
:10281000C40ED11CCA14DB0478F14C018A189B0841
:10282000640142E0C40ED11C1296BC90129713961C
:10283000AC91B5E0CB16D10440F0B282A383918273
:102840008082D9016D937C9309C00E5F1F4F800F6A
:10285000911FF90191838083EB2DFA2FE114F1048C
:1028600031F0D7011396FC93EE93129741C0F09389
:102870009104E09390043CC06816790608F43C018A
:102880007D0112960D90BC91A02DB7CF80918E0442
:1028900090918F0488169906E1F466167706C8F4BD
:1028A0008091080190910901009741F48DB79EB77E
:1028B00040910C0150910D01841B950BE817F9070D
:1028C000C8F4F0938F04E0938E04F9017183608360
:1028D0000FC0CB010E949A127C01009759F0A80109
:1028E000BE010E948614CE010E943213C70104C0AB
:1028F000CE0102C080E090E0CDB7DEB7EEE00C94F0
:102900001B1181E090E0F8940C94B014FB01DC0101
:1029100002C001900D9241505040D8F70895FB013C
:10292000DC010D900020E9F7119701900D92002035
:10293000E1F70895FB01DC0101900D920020E1F721
:102940000895FB01DC014150504048F001900D9288
:102950000020C9F701C01D9241505040E0F7089592
:1029600010E0CCEED0E004C0FE010E94941221964B
:0A297000CD3ED107C9F7F894FFCF60
:10297A00010001000100010000009204800002032E
:10298A000405000000005605C304ED04A3051E0556
:10299A00FC041005000000004407C304CF05C2046C
:1029AA000FFFFFFFFFFFFF0EFFFFFFFFFF00010208
:1029BA00030405060708FFFF09FFFFFFFFFF0A0BD5
:1029CA000C0DFFFFFFFFFFFFFFFFFFFFFFFFFFFFF2
:1029DA00FFFFFFFFFFFFFFFFFFFFFFFFFFFF0A0BE6
:1029EA000C0DC800E803D007006B6C65696E006DBA
:1029FA00697474656C0067726F7373006C656963E0
:102A0A00687420666575636874006D697474656CB2
:102A1A006665756368740050666C616E7A6520310C
:102A2A0020626577616573736572742E0050666CF7
:102A3A00616E7A65203220626577616573736572AB
:102A4A00742E0050666C616E7A652031206B6F6E51
:102A5A006E7465206E696368742062657761657358
:102A6A00736572742077657264656E2E205A7520BC
:102A7A0077656E6967205761737365722E005066B9
:102A8A006C616E7A652032206B6F6E6E7465206E93
:102A9A00696368742062657761657373657274200F
:102AAA0077657264656E2E205A752077656E696740
:102ABA00205761737365722E000D0A0047756172A3
:102ACA00644D79506C616E747300496E7075743A16
:102ADA002000427574746F6E3A20004D656E756DF4
:102AEA006F6465204D454E555F45584954005365FE
:102AFA006C656374696F6E206D6F646500496E76EC
:102B0A006F6B6500756E646566696E6564006E61FB
:0A2B1A006E00696E66006F766600BB
:00000001FF
